{
  "contractName": "FinSageToken",
  "abi": [
    {
      "inputs": [],
      "name": "getBalance",
      "outputs": [
        {
          "internalType": "uint256",
          "name": "",
          "type": "uint256"
        }
      ],
      "stateMutability": "view",
      "type": "function"
    },
    {
      "inputs": [
        {
          "internalType": "address",
          "name": "account",
          "type": "address"
        }
      ],
      "name": "balanceOf",
      "outputs": [
        {
          "internalType": "uint256",
          "name": "",
          "type": "uint256"
        }
      ],
      "stateMutability": "view",
      "type": "function"
    },
    {
      "inputs": [],
      "name": "totalSupply",
      "outputs": [
        {
          "internalType": "uint256",
          "name": "",
          "type": "uint256"
        }
      ],
      "stateMutability": "view",
      "type": "function"
    },
    {
      "inputs": [],
      "name": "symbol",
      "outputs": [
        {
          "internalType": "string",
          "name": "",
          "type": "string"
        }
      ],
      "stateMutability": "view",
      "type": "function"
    },
    {
      "inputs": [],
      "name": "name",
      "outputs": [
        {
          "internalType": "string",
          "name": "",
          "type": "string"
        }
      ],
      "stateMutability": "view",
      "type": "function"
    },
    {
      "inputs": [],
      "name": "decimals",
      "outputs": [
        {
          "internalType": "uint8",
          "name": "",
          "type": "uint8"
        }
      ],
      "stateMutability": "view",
      "type": "function"
    },
    {
      "inputs": [
        {
          "internalType": "address",
          "name": "to",
          "type": "address"
        },
        {
          "internalType": "uint256",
          "name": "amount",
          "type": "uint256"
        }
      ],
      "name": "transfer",
      "outputs": [
        {
          "internalType": "bool",
          "name": "",
          "type": "bool"
        }
      ],
      "stateMutability": "nonpayable",
      "type": "function"
    },
    {
      "inputs": [
        {
          "internalType": "address",
          "name": "spender",
          "type": "address"
        },
        {
          "internalType": "uint256",
          "name": "amount",
          "type": "uint256"
        }
      ],
      "name": "approve",
      "outputs": [
        {
          "internalType": "bool",
          "name": "",
          "type": "bool"
        }
      ],
      "stateMutability": "nonpayable",
      "type": "function"
    },
    {
      "inputs": [
        {
          "internalType": "address",
          "name": "owner",
          "type": "address"
        },
        {
          "internalType": "address",
          "name": "spender",
          "type": "address"
        }
      ],
      "name": "allowance",
      "outputs": [
        {
          "internalType": "uint256",
          "name": "",
          "type": "uint256"
        }
      ],
      "stateMutability": "view",
      "type": "function"
    },
    {
      "anonymous": false,
      "inputs": [
        {
          "indexed": true,
          "internalType": "address",
          "name": "from",
          "type": "address"
        },
        {
          "indexed": true,
          "internalType": "address",
          "name": "to",
          "type": "address"
        },
        {
          "indexed": false,
          "internalType": "uint256",
          "name": "value",
          "type": "uint256"
        }
      ],
      "name": "Transfer",
      "type": "event"
    },
    {
      "anonymous": false,
      "inputs": [
        {
          "indexed": true,
          "internalType": "address",
          "name": "owner",
          "type": "address"
        },
        {
          "indexed": true,
          "internalType": "address",
          "name": "spender",
          "type": "address"
        },
        {
          "indexed": false,
          "internalType": "uint256",
          "name": "value",
          "type": "uint256"
        }
      ],
      "name": "Approval",
      "type": "event"
    }
  ],
  "bytecode": "0x608060405234801561001057600080fd5b50600436106100a95760003560e01c8063395093511161007157806339509351146101d957806370a08231146101ec57806395d89b4114610215578063a457c2d71461021d578063a9059cbb14610230578063dd62ed3e1461024357600080fd5b806306fdde03146100ae578063095ea7b3146100cc57806318160ddd146100ef57806323b872dd14610101578063313ce56714610114575b600080fd5b6100b6610256565b6040516100c391906102c2565b60405180910390f35b6100df6100da366004610333565b6102e8565b60405190151581526020016100c3565b6002545b6040519081526020016100c3565b6100df61010f36600461035d565b610300565b61011c610324565b60405160ff90911681526020016100c3565b6100b661013c366004610399565b610333565b6100f361014f3660046103b2565b6001600160a01b031660009081526020819052604090205490565b6100b66103d5565b6100df61017f366004610333565b6103e4565b6100df610192366004610333565b61045e565b6100f36101a53660046103d4565b61046c565b6100f36101b83660046103b2565b610487565b6060600380546101cc906103e7565b80601f01602080910402602001604051908101604052809291908181526020018280546101f8906103e7565b80156102455780601f1061021a57610100808354040283529160200191610245565b820191906000526020600020905b81548152906001019060200180831161022857829003601f168201915b5050505050905090565b60003361025d818585610492565b60019150505b92915050565b6000336102778582856105b6565b610282858585610630565b506001949350505050565b60003361025d8185856102a0838361046c565b6102aa919061041b565b610492565b6060600480546101cc906103e7565b600033816102c9828661046c565b90508381101561032e5760405162461bcd60e51b815260206004820152602560248201527f45524332303a2064656372656173656420616c6c6f77616e63652062656c6f77604482015264207a65726f60d81b60648201526084016101a5565b6102828286868403610492565b60003361025d818585610630565b600060208083528351808285015260005b8181101561037a5785810183015185820160400152820161035e565b8181111561038c576000604083870101525b50601f01601f1916929092016040019392505050565b80356001600160a01b03811681146103b957600080fd5b919050565b600080604083850312156103d157600080fd5b6103da836103a2565b946020939093013593505050565b6000806000606084860312156103fd57600080fd5b610406846103a2565b9250610414602085016103a2565b9150604084013590509250925092565b6000821982111561043e57634e487b7160e01b600052601160045260246000fd5b500190565b600181811c9082168061045757607f821691505b6020821081141561047857634e487b7160e01b600052602260045260246000fd5b5091905056fea2646970667358221220...",
  "compiler": {
    "name": "solc",
    "version": "0.8.19+commit.7dd6d404"
  },
  "schemaVersion": "3.4.7",
  "updatedAt": "2024-01-15T10:30:00.000Z"
}